{
  "_format": "hh-sol-artifact-1",
  "contractName": "Staking",
  "sourceName": "contracts/Staking.sol",
  "abi": [
    {
      "inputs": [
        {
          "internalType": "address",
          "name": "stakingToken",
          "type": "address"
        },
        {
          "internalType": "address",
          "name": "rewardToken",
          "type": "address"
        }
      ],
      "stateMutability": "nonpayable",
      "type": "constructor"
    },
    {
      "inputs": [],
      "name": "Staking_NeedsMoreThanZero",
      "type": "error"
    },
    {
      "inputs": [],
      "name": "Staking_TransferFailed",
      "type": "error"
    },
    {
      "inputs": [],
      "name": "REWARD_RATE",
      "outputs": [
        {
          "internalType": "uint256",
          "name": "",
          "type": "uint256"
        }
      ],
      "stateMutability": "view",
      "type": "function"
    },
    {
      "inputs": [],
      "name": "claimReward",
      "outputs": [],
      "stateMutability": "nonpayable",
      "type": "function"
    },
    {
      "inputs": [
        {
          "internalType": "address",
          "name": "account",
          "type": "address"
        }
      ],
      "name": "earned",
      "outputs": [
        {
          "internalType": "uint256",
          "name": "",
          "type": "uint256"
        }
      ],
      "stateMutability": "view",
      "type": "function"
    },
    {
      "inputs": [],
      "name": "rewardPerToken",
      "outputs": [
        {
          "internalType": "uint256",
          "name": "",
          "type": "uint256"
        }
      ],
      "stateMutability": "view",
      "type": "function"
    },
    {
      "inputs": [
        {
          "internalType": "address",
          "name": "",
          "type": "address"
        }
      ],
      "name": "s_balances",
      "outputs": [
        {
          "internalType": "uint256",
          "name": "",
          "type": "uint256"
        }
      ],
      "stateMutability": "view",
      "type": "function"
    },
    {
      "inputs": [],
      "name": "s_lastUpdateTime",
      "outputs": [
        {
          "internalType": "uint256",
          "name": "",
          "type": "uint256"
        }
      ],
      "stateMutability": "view",
      "type": "function"
    },
    {
      "inputs": [],
      "name": "s_rewardPerTokenStored",
      "outputs": [
        {
          "internalType": "uint256",
          "name": "",
          "type": "uint256"
        }
      ],
      "stateMutability": "view",
      "type": "function"
    },
    {
      "inputs": [
        {
          "internalType": "address",
          "name": "",
          "type": "address"
        }
      ],
      "name": "s_rewards",
      "outputs": [
        {
          "internalType": "uint256",
          "name": "",
          "type": "uint256"
        }
      ],
      "stateMutability": "view",
      "type": "function"
    },
    {
      "inputs": [],
      "name": "s_rewardsToken",
      "outputs": [
        {
          "internalType": "contract IERC20",
          "name": "",
          "type": "address"
        }
      ],
      "stateMutability": "view",
      "type": "function"
    },
    {
      "inputs": [],
      "name": "s_stakingToken",
      "outputs": [
        {
          "internalType": "contract IERC20",
          "name": "",
          "type": "address"
        }
      ],
      "stateMutability": "view",
      "type": "function"
    },
    {
      "inputs": [],
      "name": "s_totalSupply",
      "outputs": [
        {
          "internalType": "uint256",
          "name": "",
          "type": "uint256"
        }
      ],
      "stateMutability": "view",
      "type": "function"
    },
    {
      "inputs": [
        {
          "internalType": "address",
          "name": "",
          "type": "address"
        }
      ],
      "name": "s_userRewardPerTokenPaid",
      "outputs": [
        {
          "internalType": "uint256",
          "name": "",
          "type": "uint256"
        }
      ],
      "stateMutability": "view",
      "type": "function"
    },
    {
      "inputs": [
        {
          "internalType": "uint256",
          "name": "amount",
          "type": "uint256"
        }
      ],
      "name": "stake",
      "outputs": [],
      "stateMutability": "nonpayable",
      "type": "function"
    },
    {
      "inputs": [
        {
          "internalType": "uint256",
          "name": "amount",
          "type": "uint256"
        }
      ],
      "name": "withdraw",
      "outputs": [],
      "stateMutability": "nonpayable",
      "type": "function"
    }
  ],
  "bytecode": "0x60806040523480156200001157600080fd5b5060405162001294380380620012948339818101604052810190620000379190620000e0565b600160008190555081600160006101000a81548173ffffffffffffffffffffffffffffffffffffffff021916908373ffffffffffffffffffffffffffffffffffffffff16021790555080600260006101000a81548173ffffffffffffffffffffffffffffffffffffffff021916908373ffffffffffffffffffffffffffffffffffffffff16021790555050506200017a565b600081519050620000da8162000160565b92915050565b60008060408385031215620000fa57620000f96200015b565b5b60006200010a85828601620000c9565b92505060206200011d85828601620000c9565b9150509250929050565b600062000134826200013b565b9050919050565b600073ffffffffffffffffffffffffffffffffffffffff82169050919050565b600080fd5b6200016b8162000127565b81146200017757600080fd5b50565b61110a806200018a6000396000f3fe608060405234801561001057600080fd5b50600436106100e95760003560e01c8063a694fc3a1161008c578063b88a802f11610066578063b88a802f1461023a578063bea0815114610244578063cd3daf9d14610274578063f245ace414610292576100e9565b8063a694fc3a146101d0578063ab32eb69146101ec578063adca9b721461021c576100e9565b8063304ac91b116100c8578063304ac91b146101585780635997bb37146101765780636a74a0fc146101945780636aa0838f146101b2576100e9565b80628cc262146100ee5780630bd21c561461011e5780632e1a7d4d1461013c575b600080fd5b61010860048036038101906101039190610cd2565b6102c2565b6040516101159190610e44565b60405180910390f35b6101266103db565b6040516101339190610e09565b60405180910390f35b61015660048036038101906101519190610d2c565b610401565b005b61016061069a565b60405161016d9190610e44565b60405180910390f35b61017e6106a0565b60405161018b9190610e44565b60405180910390f35b61019c6106a5565b6040516101a99190610e44565b60405180910390f35b6101ba6106ab565b6040516101c79190610e44565b60405180910390f35b6101ea60048036038101906101e59190610d2c565b6106b1565b005b61020660048036038101906102019190610cd2565b61094c565b6040516102139190610e44565b60405180910390f35b610224610964565b6040516102319190610e09565b60405180910390f35b61024261098a565b005b61025e60048036038101906102599190610cd2565b610c00565b60405161026b9190610e44565b60405180910390f35b61027c610c18565b6040516102899190610e44565b60405180910390f35b6102ac60048036038101906102a79190610cd2565b610c7b565b6040516102b99190610e44565b60405180910390f35b600080600360008473ffffffffffffffffffffffffffffffffffffffff1673ffffffffffffffffffffffffffffffffffffffff1681526020019081526020016000205490506000600760008573ffffffffffffffffffffffffffffffffffffffff1673ffffffffffffffffffffffffffffffffffffffff1681526020019081526020016000205490506000610355610c18565b90506000600860008773ffffffffffffffffffffffffffffffffffffffff1673ffffffffffffffffffffffffffffffffffffffff16815260200190815260200160002054905080670de0b6b3a764000084846103b19190610f51565b866103bc9190610ef7565b6103c69190610ec6565b6103d09190610ef7565b945050505050919050565b600260009054906101000a900473ffffffffffffffffffffffffffffffffffffffff1681565b3361040a610c18565b60068190555042600581905550610420816102c2565b600860008373ffffffffffffffffffffffffffffffffffffffff1673ffffffffffffffffffffffffffffffffffffffff16815260200190815260200160002081905550600654600760008373ffffffffffffffffffffffffffffffffffffffff1673ffffffffffffffffffffffffffffffffffffffff168152602001908152602001600020819055508160008114156104e5576040517f5c6c0f8400000000000000000000000000000000000000000000000000000000815260040160405180910390fd5b6002600054141561052b576040517f08c379a000000000000000000000000000000000000000000000000000000000815260040161052290610e24565b60405180910390fd5b600260008190555082600360003373ffffffffffffffffffffffffffffffffffffffff1673ffffffffffffffffffffffffffffffffffffffff16815260200190815260200160002060008282546105829190610f51565b92505081905550826004600082825461059b9190610e70565b925050819055506000600160009054906101000a900473ffffffffffffffffffffffffffffffffffffffff1673ffffffffffffffffffffffffffffffffffffffff1663a9059cbb33866040518363ffffffff1660e01b8152600401610601929190610de0565b602060405180830381600087803b15801561061b57600080fd5b505af115801561062f573d6000803e3d6000fd5b505050506040513d601f19601f820116820180604052508101906106539190610cff565b90508061068c576040517f37fe98c900000000000000000000000000000000000000000000000000000000815260040160405180910390fd5b506001600081905550505050565b60065481565b606481565b60045481565b60055481565b336106ba610c18565b600681905550426005819055506106d0816102c2565b600860008373ffffffffffffffffffffffffffffffffffffffff1673ffffffffffffffffffffffffffffffffffffffff16815260200190815260200160002081905550600654600760008373ffffffffffffffffffffffffffffffffffffffff1673ffffffffffffffffffffffffffffffffffffffff168152602001908152602001600020819055506002600054141561079f576040517f08c379a000000000000000000000000000000000000000000000000000000000815260040161079690610e24565b60405180910390fd5b60026000819055508160008114156107e3576040517f5c6c0f8400000000000000000000000000000000000000000000000000000000815260040160405180910390fd5b82600360003373ffffffffffffffffffffffffffffffffffffffff1673ffffffffffffffffffffffffffffffffffffffff16815260200190815260200160002060008282546108329190610e70565b92505081905550826004600082825461084b9190610e70565b925050819055506000600160009054906101000a900473ffffffffffffffffffffffffffffffffffffffff1673ffffffffffffffffffffffffffffffffffffffff166323b872dd3330876040518463ffffffff1660e01b81526004016108b393929190610da9565b602060405180830381600087803b1580156108cd57600080fd5b505af11580156108e1573d6000803e3d6000fd5b505050506040513d601f19601f820116820180604052508101906109059190610cff565b90508061093e576040517f37fe98c900000000000000000000000000000000000000000000000000000000815260040160405180910390fd5b505060016000819055505050565b60036020528060005260406000206000915090505481565b600160009054906101000a900473ffffffffffffffffffffffffffffffffffffffff1681565b33610993610c18565b600681905550426005819055506109a9816102c2565b600860008373ffffffffffffffffffffffffffffffffffffffff1673ffffffffffffffffffffffffffffffffffffffff16815260200190815260200160002081905550600654600760008373ffffffffffffffffffffffffffffffffffffffff1673ffffffffffffffffffffffffffffffffffffffff1681526020019081526020016000208190555060026000541415610a78576040517f08c379a0000000000000000000000000000000000000000000000000000000008152600401610a6f90610e24565b60405180910390fd5b60026000819055506000600860003373ffffffffffffffffffffffffffffffffffffffff1673ffffffffffffffffffffffffffffffffffffffff1681526020019081526020016000205490506000600860003373ffffffffffffffffffffffffffffffffffffffff1673ffffffffffffffffffffffffffffffffffffffff168152602001908152602001600020819055506000600260009054906101000a900473ffffffffffffffffffffffffffffffffffffffff1673ffffffffffffffffffffffffffffffffffffffff1663a9059cbb33846040518363ffffffff1660e01b8152600401610b68929190610de0565b602060405180830381600087803b158015610b8257600080fd5b505af1158015610b96573d6000803e3d6000fd5b505050506040513d601f19601f82011682018060405250810190610bba9190610cff565b905080610bf3576040517f37fe98c900000000000000000000000000000000000000000000000000000000815260040160405180910390fd5b5050600160008190555050565b60086020528060005260406000206000915090505481565b6000806004541415610c2e576006549050610c78565b600454670de0b6b3a7640000606460055442610c4a9190610f51565b610c549190610ef7565b610c5e9190610ef7565b610c689190610ec6565b600654610c759190610e70565b90505b90565b60076020528060005260406000206000915090505481565b600081359050610ca28161108f565b92915050565b600081519050610cb7816110a6565b92915050565b600081359050610ccc816110bd565b92915050565b600060208284031215610ce857610ce7611061565b5b6000610cf684828501610c93565b91505092915050565b600060208284031215610d1557610d14611061565b5b6000610d2384828501610ca8565b91505092915050565b600060208284031215610d4257610d41611061565b5b6000610d5084828501610cbd565b91505092915050565b610d6281610f85565b82525050565b610d7181610fcd565b82525050565b6000610d84601f83610e5f565b9150610d8f82611066565b602082019050919050565b610da381610fc3565b82525050565b6000606082019050610dbe6000830186610d59565b610dcb6020830185610d59565b610dd86040830184610d9a565b949350505050565b6000604082019050610df56000830185610d59565b610e026020830184610d9a565b9392505050565b6000602082019050610e1e6000830184610d68565b92915050565b60006020820190508181036000830152610e3d81610d77565b9050919050565b6000602082019050610e596000830184610d9a565b92915050565b600082825260208201905092915050565b6000610e7b82610fc3565b9150610e8683610fc3565b9250827fffffffffffffffffffffffffffffffffffffffffffffffffffffffffffffffff03821115610ebb57610eba611003565b5b828201905092915050565b6000610ed182610fc3565b9150610edc83610fc3565b925082610eec57610eeb611032565b5b828204905092915050565b6000610f0282610fc3565b9150610f0d83610fc3565b9250817fffffffffffffffffffffffffffffffffffffffffffffffffffffffffffffffff0483118215151615610f4657610f45611003565b5b828202905092915050565b6000610f5c82610fc3565b9150610f6783610fc3565b925082821015610f7a57610f79611003565b5b828203905092915050565b6000610f9082610fa3565b9050919050565b60008115159050919050565b600073ffffffffffffffffffffffffffffffffffffffff82169050919050565b6000819050919050565b6000610fd882610fdf565b9050919050565b6000610fea82610ff1565b9050919050565b6000610ffc82610fa3565b9050919050565b7f4e487b7100000000000000000000000000000000000000000000000000000000600052601160045260246000fd5b7f4e487b7100000000000000000000000000000000000000000000000000000000600052601260045260246000fd5b600080fd5b7f5265656e7472616e637947756172643a207265656e7472616e742063616c6c00600082015250565b61109881610f85565b81146110a357600080fd5b50565b6110af81610f97565b81146110ba57600080fd5b50565b6110c681610fc3565b81146110d157600080fd5b5056fea26469706673582212205fb3ab410a07f99a572a6fa6bd18720ec598e2c584dcc7d8bee8570dd0f7b78764736f6c63430008070033",
  "linkReferences": {},
  "deployedLinkReferences": {}
}